{
  "address": "0xCf7Ed3AccA5a467e9e704C703E8D87F634fB0Fc9",
  "abi": [
    {
      "inputs": [],
      "name": "Arisan__UnauthorizedToDelete",
      "type": "error"
    },
    {
      "anonymous": false,
      "inputs": [
        {
          "indexed": true,
          "internalType": "address",
          "name": "organizer",
          "type": "address"
        },
        {
          "indexed": false,
          "internalType": "uint256",
          "name": "paymentAmount",
          "type": "uint256"
        }
      ],
      "name": "CreateArisan",
      "type": "event"
    },
    {
      "inputs": [
        {
          "internalType": "uint256",
          "name": "",
          "type": "uint256"
        }
      ],
      "name": "arisans",
      "outputs": [
        {
          "internalType": "contract Arisan",
          "name": "",
          "type": "address"
        }
      ],
      "stateMutability": "view",
      "type": "function"
    },
    {
      "inputs": [
        {
          "internalType": "address",
          "name": "_vrfCoordinatorV2",
          "type": "address"
        },
        {
          "internalType": "bytes32",
          "name": "_gasLane",
          "type": "bytes32"
        },
        {
          "internalType": "uint64",
          "name": "_subscriptionId",
          "type": "uint64"
        },
        {
          "internalType": "uint32",
          "name": "_callbackGasLimit",
          "type": "uint32"
        },
        {
          "internalType": "uint256",
          "name": "_paymentAmount",
          "type": "uint256"
        },
        {
          "internalType": "uint256",
          "name": "_maxParticipants",
          "type": "uint256"
        }
      ],
      "name": "createArisan",
      "outputs": [],
      "stateMutability": "nonpayable",
      "type": "function"
    },
    {
      "inputs": [
        {
          "internalType": "uint256",
          "name": "_arisanId",
          "type": "uint256"
        }
      ],
      "name": "deleteArisan",
      "outputs": [],
      "stateMutability": "nonpayable",
      "type": "function"
    },
    {
      "inputs": [
        {
          "internalType": "uint256",
          "name": "_arisanId",
          "type": "uint256"
        }
      ],
      "name": "getArisanById",
      "outputs": [
        {
          "internalType": "contract Arisan",
          "name": "",
          "type": "address"
        }
      ],
      "stateMutability": "view",
      "type": "function"
    },
    {
      "inputs": [],
      "name": "getArisanCount",
      "outputs": [
        {
          "internalType": "uint256",
          "name": "",
          "type": "uint256"
        }
      ],
      "stateMutability": "view",
      "type": "function"
    },
    {
      "inputs": [],
      "name": "getArisanList",
      "outputs": [
        {
          "internalType": "contract Arisan[]",
          "name": "",
          "type": "address[]"
        }
      ],
      "stateMutability": "view",
      "type": "function"
    }
  ],
  "transactionHash": "0xe2d382762e75a0015b8338fbc000a2d84409d13a162b5ad1c7262e94dec554f5",
  "args": [],
  "numDeployments": 1,
  "solcInputHash": "481781812d6778fd0685f82d2cd65245",
  "bytecode": "0x608060405234801561001057600080fd5b50612f71806100206000396000f3fe60806040523480156200001157600080fd5b50600436106200006a5760003560e01c806349378c4c146200006f5780635310ca9d146200008f578063abbe869e14620000b1578063b5fbc81914620000e7578063c0d41eae1462000107578063cbd58a3c1462000129575b600080fd5b6200008d60048036038101906200008791906200075b565b6200015f565b005b6200009962000264565b604051620000a8919062000808565b60405180910390f35b620000cf6004803603810190620000c9919062000825565b62000270565b604051620000de9190620008c2565b60405180910390f35b620001056004803603810190620000ff919062000825565b620002b0565b005b620001116200050d565b604051620001209190620009ad565b60405180910390f35b62000147600480360381019062000141919062000825565b6200059d565b604051620001569190620008c2565b60405180910390f35b6000338787878787876040516200017690620005e7565b62000188979695949392919062000a15565b604051809103906000f080158015620001a5573d6000803e3d6000fd5b5090506000819080600181540180825580915050600190039060005260206000200160009091909190916101000a81548173ffffffffffffffffffffffffffffffffffffffff021916908373ffffffffffffffffffffffffffffffffffffffff1602179055503373ffffffffffffffffffffffffffffffffffffffff167fb046a747d3b1914a2e93816085ccf4118cd0add2438af21aff673125d8d38cd18460405162000253919062000808565b60405180910390a250505050505050565b60008080549050905090565b600081815481106200028157600080fd5b906000526020600020016000915054906101000a900473ffffffffffffffffffffffffffffffffffffffff1681565b3373ffffffffffffffffffffffffffffffffffffffff1660008281548110620002de57620002dd62000a92565b5b9060005260206000200160009054906101000a900473ffffffffffffffffffffffffffffffffffffffff1673ffffffffffffffffffffffffffffffffffffffff1663c2def3b96040518163ffffffff1660e01b815260040160206040518083038186803b1580156200034f57600080fd5b505afa15801562000364573d6000803e3d6000fd5b505050506040513d601f19601f820116820180604052508101906200038a919062000ad8565b73ffffffffffffffffffffffffffffffffffffffff1614620003d8576040517fb5c2892900000000000000000000000000000000000000000000000000000000815260040160405180910390fd5b60008190505b6001600080549050620003f2919062000b39565b811015620004bf5760006001826200040b919062000b74565b815481106200041f576200041e62000a92565b5b9060005260206000200160009054906101000a900473ffffffffffffffffffffffffffffffffffffffff166000828154811062000461576200046062000a92565b5b9060005260206000200160006101000a81548173ffffffffffffffffffffffffffffffffffffffff021916908373ffffffffffffffffffffffffffffffffffffffff1602179055508080620004b69062000bd1565b915050620003de565b506000805480620004d557620004d462000c1f565b5b6001900381819060005260206000200160006101000a81549073ffffffffffffffffffffffffffffffffffffffff0219169055905550565b606060008054806020026020016040519081016040528092919081815260200182805480156200059357602002820191906000526020600020905b8160009054906101000a900473ffffffffffffffffffffffffffffffffffffffff1673ffffffffffffffffffffffffffffffffffffffff168152602001906001019080831162000548575b5050505050905090565b6000808281548110620005b557620005b462000a92565b5b9060005260206000200160009054906101000a900473ffffffffffffffffffffffffffffffffffffffff169050919050565b6122ed8062000c4f83390190565b600080fd5b600073ffffffffffffffffffffffffffffffffffffffff82169050919050565b60006200062782620005fa565b9050919050565b62000639816200061a565b81146200064557600080fd5b50565b60008135905062000659816200062e565b92915050565b6000819050919050565b62000674816200065f565b81146200068057600080fd5b50565b600081359050620006948162000669565b92915050565b600067ffffffffffffffff82169050919050565b620006b9816200069a565b8114620006c557600080fd5b50565b600081359050620006d981620006ae565b92915050565b600063ffffffff82169050919050565b620006fa81620006df565b81146200070657600080fd5b50565b6000813590506200071a81620006ef565b92915050565b6000819050919050565b620007358162000720565b81146200074157600080fd5b50565b60008135905062000755816200072a565b92915050565b60008060008060008060c087890312156200077b576200077a620005f5565b5b60006200078b89828a0162000648565b96505060206200079e89828a0162000683565b9550506040620007b189828a01620006c8565b9450506060620007c489828a0162000709565b9350506080620007d789828a0162000744565b92505060a0620007ea89828a0162000744565b9150509295509295509295565b620008028162000720565b82525050565b60006020820190506200081f6000830184620007f7565b92915050565b6000602082840312156200083e576200083d620005f5565b5b60006200084e8482850162000744565b91505092915050565b6000819050919050565b6000620008826200087c6200087684620005fa565b62000857565b620005fa565b9050919050565b6000620008968262000861565b9050919050565b6000620008aa8262000889565b9050919050565b620008bc816200089d565b82525050565b6000602082019050620008d96000830184620008b1565b92915050565b600081519050919050565b600082825260208201905092915050565b6000819050602082019050919050565b62000916816200089d565b82525050565b60006200092a83836200090b565b60208301905092915050565b6000602082019050919050565b60006200095082620008df565b6200095c8185620008ea565b93506200096983620008fb565b8060005b83811015620009a05781516200098488826200091c565b9750620009918362000936565b9250506001810190506200096d565b5085935050505092915050565b60006020820190508181036000830152620009c9818462000943565b905092915050565b620009dc816200061a565b82525050565b620009ed816200065f565b82525050565b620009fe816200069a565b82525050565b62000a0f81620006df565b82525050565b600060e08201905062000a2c600083018a620009d1565b62000a3b6020830189620009d1565b62000a4a6040830188620009e2565b62000a596060830187620009f3565b62000a68608083018662000a04565b62000a7760a0830185620007f7565b62000a8660c0830184620007f7565b98975050505050505050565b7f4e487b7100000000000000000000000000000000000000000000000000000000600052603260045260246000fd5b60008151905062000ad2816200062e565b92915050565b60006020828403121562000af15762000af0620005f5565b5b600062000b018482850162000ac1565b91505092915050565b7f4e487b7100000000000000000000000000000000000000000000000000000000600052601160045260246000fd5b600062000b468262000720565b915062000b538362000720565b92508282101562000b695762000b6862000b0a565b5b828203905092915050565b600062000b818262000720565b915062000b8e8362000720565b9250827fffffffffffffffffffffffffffffffffffffffffffffffffffffffffffffffff0382111562000bc65762000bc562000b0a565b5b828201905092915050565b600062000bde8262000720565b91507fffffffffffffffffffffffffffffffffffffffffffffffffffffffffffffffff82141562000c145762000c1362000b0a565b5b600182019050919050565b7f4e487b7100000000000000000000000000000000000000000000000000000000600052603160045260246000fdfe6101606040523480156200001257600080fd5b50604051620022ed380380620022ed8339818101604052810190620000389190620002cf565b858073ffffffffffffffffffffffffffffffffffffffff1660808173ffffffffffffffffffffffffffffffffffffffff1660601b81525050508673ffffffffffffffffffffffffffffffffffffffff1660a08173ffffffffffffffffffffffffffffffffffffffff1660601b815250508573ffffffffffffffffffffffffffffffffffffffff1660e08173ffffffffffffffffffffffffffffffffffffffff1660601b815250508461010081815250508367ffffffffffffffff166101208167ffffffffffffffff1660c01b815250508263ffffffff166101408163ffffffff1660e01b815250508160c081815250508060018190555060008060006101000a81548160ff0219169083600181111562000157576200015662000382565b5b021790555050505050505050620003b1565b600080fd5b600073ffffffffffffffffffffffffffffffffffffffff82169050919050565b60006200019b826200016e565b9050919050565b620001ad816200018e565b8114620001b957600080fd5b50565b600081519050620001cd81620001a2565b92915050565b6000819050919050565b620001e881620001d3565b8114620001f457600080fd5b50565b6000815190506200020881620001dd565b92915050565b600067ffffffffffffffff82169050919050565b6200022d816200020e565b81146200023957600080fd5b50565b6000815190506200024d8162000222565b92915050565b600063ffffffff82169050919050565b6200026e8162000253565b81146200027a57600080fd5b50565b6000815190506200028e8162000263565b92915050565b6000819050919050565b620002a98162000294565b8114620002b557600080fd5b50565b600081519050620002c9816200029e565b92915050565b600080600080600080600060e0888a031215620002f157620002f062000169565b5b6000620003018a828b01620001bc565b9750506020620003148a828b01620001bc565b9650506040620003278a828b01620001f7565b95505060606200033a8a828b016200023c565b94505060806200034d8a828b016200027d565b93505060a0620003608a828b01620002b8565b92505060c0620003738a828b01620002b8565b91505092959891949750929550565b7f4e487b7100000000000000000000000000000000000000000000000000000000600052602160045260246000fd5b60805160601c60a05160601c60c05160e05160601c610100516101205160c01c6101405160e01c611eb6620004376000396000610c5901526000610c3601526000610c1501526000610bd90152600081816106f7015261071d01526000818161063b01528181610afb0152610b2101526000818161042001526104740152611eb66000f3fe6080604052600436106101145760003560e01c80635aa68ac0116100a0578063ad60572911610064578063ad6057291461033f578063c2def3b91461036a578063e0c8628914610395578063e89e106a146103ac578063f6eaffc8146103d757610114565b80635aa68ac0146102775780636a02209c146102a257806375964b55146102cd578063773fd3cd1461030a578063a46c36371461031457610114565b806335c1d349116100e757806335c1d349146101c35780633cc1161a146102005780633e8817aa14610217578063452f5b2e146102425780634e69d5601461024c57610114565b80631ef98aab146101195780631fe543e314610144578063200d2ed21461016d5780633580404b14610198575b600080fd5b34801561012557600080fd5b5061012e610414565b60405161013b9190611469565b60405180910390f35b34801561015057600080fd5b5061016b6004803603810190610166919061161d565b61041e565b005b34801561017957600080fd5b506101826104de565b60405161018f91906116f0565b60405180910390f35b3480156101a457600080fd5b506101ad6104ef565b6040516101ba91906117fb565b60405180910390f35b3480156101cf57600080fd5b506101ea60048036038101906101e5919061181d565b6105fa565b6040516101f7919061186b565b60405180910390f35b34801561020c57600080fd5b50610215610639565b005b34801561022357600080fd5b5061022c6106f3565b6040516102399190611469565b60405180910390f35b61024a61071b565b005b34801561025857600080fd5b5061026161079a565b60405161026e91906116f0565b60405180910390f35b34801561028357600080fd5b5061028c6107b0565b60405161029991906117fb565b60405180910390f35b3480156102ae57600080fd5b506102b76108bb565b6040516102c49190611469565b60405180910390f35b3480156102d957600080fd5b506102f460048036038101906102ef919061181d565b6108c5565b6040516103019190611895565b60405180910390f35b610312610904565b005b34801561032057600080fd5b50610329610add565b6040516103369190611469565b60405180910390f35b34801561034b57600080fd5b50610354610aea565b6040516103619190611469565b60405180910390f35b34801561037657600080fd5b5061037f610af7565b60405161038c9190611895565b60405180910390f35b3480156103a157600080fd5b506103aa610b1f565b005b3480156103b857600080fd5b506103c1610d23565b6040516103ce9190611469565b60405180910390f35b3480156103e357600080fd5b506103fe60048036038101906103f9919061181d565b610d29565b60405161040b9190611469565b60405180910390f35b6000600454905090565b7f000000000000000000000000000000000000000000000000000000000000000073ffffffffffffffffffffffffffffffffffffffff163373ffffffffffffffffffffffffffffffffffffffff16146104d057337f00000000000000000000000000000000000000000000000000000000000000006040517f1cf993f40000000000000000000000000000000000000000000000000000000081526004016104c79291906118b0565b60405180910390fd5b6104da8282610d4d565b5050565b60008054906101000a900460ff1681565b6060600060038054905067ffffffffffffffff811115610512576105116114da565b5b6040519080825280602002602001820160405280156105405781602001602082028036833780820191505090505b50905060005b6003805490508110156105f25760038181548110610567576105666118d9565b5b9060005260206000200160009054906101000a900473ffffffffffffffffffffffffffffffffffffffff168282815181106105a5576105a46118d9565b5b602002602001019073ffffffffffffffffffffffffffffffffffffffff16908173ffffffffffffffffffffffffffffffffffffffff168152505080806105ea90611937565b915050610546565b508091505090565b6002818154811061060a57600080fd5b906000526020600020016000915054906101000a900473ffffffffffffffffffffffffffffffffffffffff1681565b7f000000000000000000000000000000000000000000000000000000000000000073ffffffffffffffffffffffffffffffffffffffff163373ffffffffffffffffffffffffffffffffffffffff16146106c7576040517f08c379a00000000000000000000000000000000000000000000000000000000081526004016106be90611a03565b60405180910390fd5b60016000806101000a81548160ff021916908360018111156106ec576106eb611679565b5b0217905550565b60007f0000000000000000000000000000000000000000000000000000000000000000905090565b7f0000000000000000000000000000000000000000000000000000000000000000341461077f57346040517fd0c5c15c0000000000000000000000000000000000000000000000000000000081526004016107769190611469565b60405180910390fd5b34600460008282546107919190611a23565b92505081905550565b60008060009054906101000a900460ff16905090565b6060600060028054905067ffffffffffffffff8111156107d3576107d26114da565b5b6040519080825280602002602001820160405280156108015781602001602082028036833780820191505090505b50905060005b6002805490508110156108b35760028181548110610828576108276118d9565b5b9060005260206000200160009054906101000a900473ffffffffffffffffffffffffffffffffffffffff16828281518110610866576108656118d9565b5b602002602001019073ffffffffffffffffffffffffffffffffffffffff16908173ffffffffffffffffffffffffffffffffffffffff168152505080806108ab90611937565b915050610807565b508091505090565b6000600154905090565b600381815481106108d557600080fd5b906000526020600020016000915054906101000a900473ffffffffffffffffffffffffffffffffffffffff1681565b60018081111561091757610916611679565b5b60008054906101000a900460ff16600181111561093757610936611679565b5b141561096f576040517fc4590d1100000000000000000000000000000000000000000000000000000000815260040160405180910390fd5b60015460028054905014156109b0576040517f67f12f7c00000000000000000000000000000000000000000000000000000000815260040160405180910390fd5b60005b600280549050811015610a77573373ffffffffffffffffffffffffffffffffffffffff16600282815481106109eb576109ea6118d9565b5b9060005260206000200160009054906101000a900473ffffffffffffffffffffffffffffffffffffffff1673ffffffffffffffffffffffffffffffffffffffff161415610a64576040517f99f83f9d00000000000000000000000000000000000000000000000000000000815260040160405180910390fd5b8080610a6f90611937565b9150506109b3565b506002339080600181540180825580915050600190039060005260206000200160009091909190916101000a81548173ffffffffffffffffffffffffffffffffffffffff021916908373ffffffffffffffffffffffffffffffffffffffff160217905550565b6000600380549050905090565b6000600280549050905090565b60007f0000000000000000000000000000000000000000000000000000000000000000905090565b7f000000000000000000000000000000000000000000000000000000000000000073ffffffffffffffffffffffffffffffffffffffff163373ffffffffffffffffffffffffffffffffffffffff1614610bad576040517f08c379a0000000000000000000000000000000000000000000000000000000008152600401610ba490611a03565b60405180910390fd5b60016000806101000a81548160ff02191690836001811115610bd257610bd1611679565b5b02179055507f000000000000000000000000000000000000000000000000000000000000000073ffffffffffffffffffffffffffffffffffffffff16635d3b1d307f00000000000000000000000000000000000000000000000000000000000000007f000000000000000000000000000000000000000000000000000000000000000060037f000000000000000000000000000000000000000000000000000000000000000060016040518663ffffffff1660e01b8152600401610c9a959493929190611af1565b602060405180830381600087803b158015610cb457600080fd5b505af1158015610cc8573d6000803e3d6000fd5b505050506040513d601f19601f82011682018060405250810190610cec9190611b59565b6005819055506005547f7fcb39adb5b831fa03838de8ac6af690f48e3339ee8300eff17b1cd8035054df60405160405180910390a2565b60055481565b60068181548110610d3957600080fd5b906000526020600020016000915090505481565b8060069080519060200190610d639291906113dc565b50610dc26040518060400160405280601181526020017f0952616e646f6d20576f7264733a2025730000000000000000000000000000008152506006600081548110610db257610db16118d9565b5b9060005260206000200154611120565b600060026006600081548110610ddb57610dda6118d9565b5b9060005260206000200154610df09190611bb5565b9050600060028281548110610e0857610e076118d9565b5b9060005260206000200160009054906101000a900473ffffffffffffffffffffffffffffffffffffffff169050610e736040518060400160405280600e81526020017f0a092d2d2d4265666f72652d2d2d0000000000000000000000000000000000008152506111bc565b610ed8604051806060016040528060278152602001611e5a6027913982670de0b6b3a76400008473ffffffffffffffffffffffffffffffffffffffff1631610ebb9190611be6565b8473ffffffffffffffffffffffffffffffffffffffff1631611255565b610f2f6040518060400160405280601c81526020017f0a09506f74205072697a653a2025732045544820282573205745492900000000815250670de0b6b3a7640000600454610f279190611be6565b6004546112f7565b60008173ffffffffffffffffffffffffffffffffffffffff16600454604051610f5790611c48565b60006040518083038185875af1925050503d8060008114610f94576040519150601f19603f3d011682016040523d82523d6000602084013e610f99565b606091505b5050905080610fd4576040517f43878cb500000000000000000000000000000000000000000000000000000000815260040160405180910390fd5b6003829080600181540180825580915050600190039060005260206000200160009091909190916101000a81548173ffffffffffffffffffffffffffffffffffffffff021916908373ffffffffffffffffffffffffffffffffffffffff1602179055507f1d4c260f1824cd028e6c9e6e31c3a0b94f2513e7a641113ec759d382f9bdd5a1826040516110669190611cbc565b60405180910390a160006004819055506110b46040518060400160405280600d81526020017f0a092d2d2d41667465722d2d2d000000000000000000000000000000000000008152506111bc565b611119604051806060016040528060278152602001611e5a6027913983670de0b6b3a76400008573ffffffffffffffffffffffffffffffffffffffff16316110fc9190611be6565b8573ffffffffffffffffffffffffffffffffffffffff1631611255565b5050505050565b6111b88282604051602401611136929190611d4e565b6040516020818303038152906040527fb60e72cc000000000000000000000000000000000000000000000000000000007bffffffffffffffffffffffffffffffffffffffffffffffffffffffff19166020820180517bffffffffffffffffffffffffffffffffffffffffffffffffffffffff8381831617835250505050611396565b5050565b611252816040516024016111d09190611d7e565b6040516020818303038152906040527f41304fac000000000000000000000000000000000000000000000000000000007bffffffffffffffffffffffffffffffffffffffffffffffffffffffff19166020820180517bffffffffffffffffffffffffffffffffffffffffffffffffffffffff8381831617835250505050611396565b50565b6112f18484848460405160240161126f9493929190611da0565b6040516020818303038152906040527ff8f51b1e000000000000000000000000000000000000000000000000000000007bffffffffffffffffffffffffffffffffffffffffffffffffffffffff19166020820180517bffffffffffffffffffffffffffffffffffffffffffffffffffffffff8381831617835250505050611396565b50505050565b61139183838360405160240161130f93929190611dec565b6040516020818303038152906040527fca47c4eb000000000000000000000000000000000000000000000000000000007bffffffffffffffffffffffffffffffffffffffffffffffffffffffff19166020820180517bffffffffffffffffffffffffffffffffffffffffffffffffffffffff8381831617835250505050611396565b505050565b6113ad816113a56113b06113d1565b63ffffffff16565b50565b60006a636f6e736f6c652e6c6f679050600080835160208501845afa505050565b611429819050919050565b828054828255906000526020600020908101928215611418579160200282015b828111156114175782518255916020019190600101906113fc565b5b5090506114259190611433565b5090565b611431611e2a565b565b5b8082111561144c576000816000905550600101611434565b5090565b6000819050919050565b61146381611450565b82525050565b600060208201905061147e600083018461145a565b92915050565b6000604051905090565b600080fd5b600080fd5b6114a181611450565b81146114ac57600080fd5b50565b6000813590506114be81611498565b92915050565b600080fd5b6000601f19601f8301169050919050565b7f4e487b7100000000000000000000000000000000000000000000000000000000600052604160045260246000fd5b611512826114c9565b810181811067ffffffffffffffff82111715611531576115306114da565b5b80604052505050565b6000611544611484565b90506115508282611509565b919050565b600067ffffffffffffffff8211156115705761156f6114da565b5b602082029050602081019050919050565b600080fd5b600061159961159484611555565b61153a565b905080838252602082019050602084028301858111156115bc576115bb611581565b5b835b818110156115e557806115d188826114af565b8452602084019350506020810190506115be565b5050509392505050565b600082601f830112611604576116036114c4565b5b8135611614848260208601611586565b91505092915050565b600080604083850312156116345761163361148e565b5b6000611642858286016114af565b925050602083013567ffffffffffffffff81111561166357611662611493565b5b61166f858286016115ef565b9150509250929050565b7f4e487b7100000000000000000000000000000000000000000000000000000000600052602160045260246000fd5b600281106116b9576116b8611679565b5b50565b60008190506116ca826116a8565b919050565b60006116da826116bc565b9050919050565b6116ea816116cf565b82525050565b600060208201905061170560008301846116e1565b92915050565b600081519050919050565b600082825260208201905092915050565b6000819050602082019050919050565b600073ffffffffffffffffffffffffffffffffffffffff82169050919050565b600061176282611737565b9050919050565b61177281611757565b82525050565b60006117848383611769565b60208301905092915050565b6000602082019050919050565b60006117a88261170b565b6117b28185611716565b93506117bd83611727565b8060005b838110156117ee5781516117d58882611778565b97506117e083611790565b9250506001810190506117c1565b5085935050505092915050565b60006020820190508181036000830152611815818461179d565b905092915050565b6000602082840312156118335761183261148e565b5b6000611841848285016114af565b91505092915050565b600061185582611737565b9050919050565b6118658161184a565b82525050565b6000602082019050611880600083018461185c565b92915050565b61188f81611757565b82525050565b60006020820190506118aa6000830184611886565b92915050565b60006040820190506118c56000830185611886565b6118d26020830184611886565b9392505050565b7f4e487b7100000000000000000000000000000000000000000000000000000000600052603260045260246000fd5b7f4e487b7100000000000000000000000000000000000000000000000000000000600052601160045260246000fd5b600061194282611450565b91507fffffffffffffffffffffffffffffffffffffffffffffffffffffffffffffffff82141561197557611974611908565b5b600182019050919050565b600082825260208201905092915050565b7f4f6e6c7920746865206f7267616e697a65722063616e2063616c6c207468697360008201527f2066756e6374696f6e0000000000000000000000000000000000000000000000602082015250565b60006119ed602983611980565b91506119f882611991565b604082019050919050565b60006020820190508181036000830152611a1c816119e0565b9050919050565b6000611a2e82611450565b9150611a3983611450565b9250827fffffffffffffffffffffffffffffffffffffffffffffffffffffffffffffffff03821115611a6e57611a6d611908565b5b828201905092915050565b6000819050919050565b611a8c81611a79565b82525050565b600067ffffffffffffffff82169050919050565b611aaf81611a92565b82525050565b600061ffff82169050919050565b611acc81611ab5565b82525050565b600063ffffffff82169050919050565b611aeb81611ad2565b82525050565b600060a082019050611b066000830188611a83565b611b136020830187611aa6565b611b206040830186611ac3565b611b2d6060830185611ae2565b611b3a6080830184611ae2565b9695505050505050565b600081519050611b5381611498565b92915050565b600060208284031215611b6f57611b6e61148e565b5b6000611b7d84828501611b44565b91505092915050565b7f4e487b7100000000000000000000000000000000000000000000000000000000600052601260045260246000fd5b6000611bc082611450565b9150611bcb83611450565b925082611bdb57611bda611b86565b5b828206905092915050565b6000611bf182611450565b9150611bfc83611450565b925082611c0c57611c0b611b86565b5b828204905092915050565b600081905092915050565b50565b6000611c32600083611c17565b9150611c3d82611c22565b600082019050919050565b6000611c5382611c25565b9150819050919050565b6000819050919050565b6000611c82611c7d611c7884611737565b611c5d565b611737565b9050919050565b6000611c9482611c67565b9050919050565b6000611ca682611c89565b9050919050565b611cb681611c9b565b82525050565b6000602082019050611cd16000830184611cad565b92915050565b600081519050919050565b60005b83811015611d00578082015181840152602081019050611ce5565b83811115611d0f576000848401525b50505050565b6000611d2082611cd7565b611d2a8185611980565b9350611d3a818560208601611ce2565b611d43816114c9565b840191505092915050565b60006040820190508181036000830152611d688185611d15565b9050611d77602083018461145a565b9392505050565b60006020820190508181036000830152611d988184611d15565b905092915050565b60006080820190508181036000830152611dba8187611d15565b9050611dc96020830186611886565b611dd6604083018561145a565b611de3606083018461145a565b95945050505050565b60006060820190508181036000830152611e068186611d15565b9050611e15602083018561145a565b611e22604083018461145a565b949350505050565b7f4e487b7100000000000000000000000000000000000000000000000000000000600052605160045260246000fdfe09416464726573733a202573200a0942616c616e63653a20257320455448202825732057454929a264697066735822122006baae386ede49ceda7708ef8da6111006ce8f2ede839146babf22a4438c0f4364736f6c63430008080033a26469706673582212200afd5cd32082a61f38f0ace8da72df9a279739d2d7597f9f368e51f2f33d3a6564736f6c63430008080033",
  "devdoc": {
    "kind": "dev",
    "methods": {},
    "version": 1
  },
  "userdoc": {
    "kind": "user",
    "methods": {},
    "version": 1
  },
  "storageLayout": {
    "storage": [
      {
        "astId": 674,
        "contract": "contracts/ArisanFactory.sol:ArisanFactory",
        "label": "arisans",
        "offset": 0,
        "slot": "0",
        "type": "t_array(t_contract(Arisan)665)dyn_storage"
      }
    ],
    "types": {
      "t_array(t_contract(Arisan)665)dyn_storage": {
        "base": "t_contract(Arisan)665",
        "encoding": "dynamic_array",
        "label": "contract Arisan[]",
        "numberOfBytes": "32"
      },
      "t_contract(Arisan)665": {
        "encoding": "inplace",
        "label": "contract Arisan",
        "numberOfBytes": "20"
      }
    }
  }
}