{
  "_format": "hh-sol-artifact-1",
  "contractName": "ArisanFactory",
  "sourceName": "contracts/ArisanFactory.sol",
  "abi": [
    {
      "inputs": [],
      "name": "Arisan__UnauthorizedToDelete",
      "type": "error"
    },
    {
      "anonymous": false,
      "inputs": [
        {
          "indexed": true,
          "internalType": "address",
          "name": "organizer",
          "type": "address"
        },
        {
          "indexed": false,
          "internalType": "uint256",
          "name": "paymentAmount",
          "type": "uint256"
        }
      ],
      "name": "CreateArisan",
      "type": "event"
    },
    {
      "inputs": [
        {
          "internalType": "uint256",
          "name": "",
          "type": "uint256"
        }
      ],
      "name": "arisans",
      "outputs": [
        {
          "internalType": "contract Arisan",
          "name": "",
          "type": "address"
        }
      ],
      "stateMutability": "view",
      "type": "function"
    },
    {
      "inputs": [
        {
          "internalType": "address",
          "name": "_vrfCoordinatorV2",
          "type": "address"
        },
        {
          "internalType": "bytes32",
          "name": "_gasLane",
          "type": "bytes32"
        },
        {
          "internalType": "uint64",
          "name": "_subscriptionId",
          "type": "uint64"
        },
        {
          "internalType": "uint32",
          "name": "_callbackGasLimit",
          "type": "uint32"
        },
        {
          "internalType": "uint256",
          "name": "_paymentAmount",
          "type": "uint256"
        },
        {
          "internalType": "uint256",
          "name": "_maxParticipants",
          "type": "uint256"
        }
      ],
      "name": "createArisan",
      "outputs": [],
      "stateMutability": "nonpayable",
      "type": "function"
    },
    {
      "inputs": [
        {
          "internalType": "uint256",
          "name": "_arisanId",
          "type": "uint256"
        }
      ],
      "name": "deleteArisan",
      "outputs": [],
      "stateMutability": "nonpayable",
      "type": "function"
    },
    {
      "inputs": [
        {
          "internalType": "uint256",
          "name": "_arisanId",
          "type": "uint256"
        }
      ],
      "name": "getArisanById",
      "outputs": [
        {
          "internalType": "contract Arisan",
          "name": "",
          "type": "address"
        }
      ],
      "stateMutability": "view",
      "type": "function"
    },
    {
      "inputs": [],
      "name": "getArisanCount",
      "outputs": [
        {
          "internalType": "uint256",
          "name": "",
          "type": "uint256"
        }
      ],
      "stateMutability": "view",
      "type": "function"
    },
    {
      "inputs": [],
      "name": "getArisanList",
      "outputs": [
        {
          "internalType": "contract Arisan[]",
          "name": "",
          "type": "address[]"
        }
      ],
      "stateMutability": "view",
      "type": "function"
    }
  ],
  "bytecode": "0x608060405234801561001057600080fd5b50612520806100206000396000f3fe60806040523480156200001157600080fd5b50600436106200006a5760003560e01c806349378c4c146200006f5780635310ca9d146200008f578063abbe869e14620000b1578063b5fbc81914620000e7578063c0d41eae1462000107578063cbd58a3c1462000129575b600080fd5b6200008d60048036038101906200008791906200075b565b6200015f565b005b6200009962000264565b604051620000a8919062000808565b60405180910390f35b620000cf6004803603810190620000c9919062000825565b62000270565b604051620000de9190620008c2565b60405180910390f35b620001056004803603810190620000ff919062000825565b620002b0565b005b620001116200050d565b604051620001209190620009ad565b60405180910390f35b62000147600480360381019062000141919062000825565b6200059d565b604051620001569190620008c2565b60405180910390f35b6000338787878787876040516200017690620005e7565b62000188979695949392919062000a15565b604051809103906000f080158015620001a5573d6000803e3d6000fd5b5090506000819080600181540180825580915050600190039060005260206000200160009091909190916101000a81548173ffffffffffffffffffffffffffffffffffffffff021916908373ffffffffffffffffffffffffffffffffffffffff1602179055503373ffffffffffffffffffffffffffffffffffffffff167fb046a747d3b1914a2e93816085ccf4118cd0add2438af21aff673125d8d38cd18460405162000253919062000808565b60405180910390a250505050505050565b60008080549050905090565b600081815481106200028157600080fd5b906000526020600020016000915054906101000a900473ffffffffffffffffffffffffffffffffffffffff1681565b3373ffffffffffffffffffffffffffffffffffffffff1660008281548110620002de57620002dd62000a92565b5b9060005260206000200160009054906101000a900473ffffffffffffffffffffffffffffffffffffffff1673ffffffffffffffffffffffffffffffffffffffff1663c2def3b96040518163ffffffff1660e01b815260040160206040518083038186803b1580156200034f57600080fd5b505afa15801562000364573d6000803e3d6000fd5b505050506040513d601f19601f820116820180604052508101906200038a919062000ad8565b73ffffffffffffffffffffffffffffffffffffffff1614620003d8576040517fb5c2892900000000000000000000000000000000000000000000000000000000815260040160405180910390fd5b60008190505b6001600080549050620003f2919062000b39565b811015620004bf5760006001826200040b919062000b74565b815481106200041f576200041e62000a92565b5b9060005260206000200160009054906101000a900473ffffffffffffffffffffffffffffffffffffffff166000828154811062000461576200046062000a92565b5b9060005260206000200160006101000a81548173ffffffffffffffffffffffffffffffffffffffff021916908373ffffffffffffffffffffffffffffffffffffffff1602179055508080620004b69062000bd1565b915050620003de565b506000805480620004d557620004d462000c1f565b5b6001900381819060005260206000200160006101000a81549073ffffffffffffffffffffffffffffffffffffffff0219169055905550565b606060008054806020026020016040519081016040528092919081815260200182805480156200059357602002820191906000526020600020905b8160009054906101000a900473ffffffffffffffffffffffffffffffffffffffff1673ffffffffffffffffffffffffffffffffffffffff168152602001906001019080831162000548575b5050505050905090565b6000808281548110620005b557620005b462000a92565b5b9060005260206000200160009054906101000a900473ffffffffffffffffffffffffffffffffffffffff169050919050565b61189c8062000c4f83390190565b600080fd5b600073ffffffffffffffffffffffffffffffffffffffff82169050919050565b60006200062782620005fa565b9050919050565b62000639816200061a565b81146200064557600080fd5b50565b60008135905062000659816200062e565b92915050565b6000819050919050565b62000674816200065f565b81146200068057600080fd5b50565b600081359050620006948162000669565b92915050565b600067ffffffffffffffff82169050919050565b620006b9816200069a565b8114620006c557600080fd5b50565b600081359050620006d981620006ae565b92915050565b600063ffffffff82169050919050565b620006fa81620006df565b81146200070657600080fd5b50565b6000813590506200071a81620006ef565b92915050565b6000819050919050565b620007358162000720565b81146200074157600080fd5b50565b60008135905062000755816200072a565b92915050565b60008060008060008060c087890312156200077b576200077a620005f5565b5b60006200078b89828a0162000648565b96505060206200079e89828a0162000683565b9550506040620007b189828a01620006c8565b9450506060620007c489828a0162000709565b9350506080620007d789828a0162000744565b92505060a0620007ea89828a0162000744565b9150509295509295509295565b620008028162000720565b82525050565b60006020820190506200081f6000830184620007f7565b92915050565b6000602082840312156200083e576200083d620005f5565b5b60006200084e8482850162000744565b91505092915050565b6000819050919050565b6000620008826200087c6200087684620005fa565b62000857565b620005fa565b9050919050565b6000620008968262000861565b9050919050565b6000620008aa8262000889565b9050919050565b620008bc816200089d565b82525050565b6000602082019050620008d96000830184620008b1565b92915050565b600081519050919050565b600082825260208201905092915050565b6000819050602082019050919050565b62000916816200089d565b82525050565b60006200092a83836200090b565b60208301905092915050565b6000602082019050919050565b60006200095082620008df565b6200095c8185620008ea565b93506200096983620008fb565b8060005b83811015620009a05781516200098488826200091c565b9750620009918362000936565b9250506001810190506200096d565b5085935050505092915050565b60006020820190508181036000830152620009c9818462000943565b905092915050565b620009dc816200061a565b82525050565b620009ed816200065f565b82525050565b620009fe816200069a565b82525050565b62000a0f81620006df565b82525050565b600060e08201905062000a2c600083018a620009d1565b62000a3b6020830189620009d1565b62000a4a6040830188620009e2565b62000a596060830187620009f3565b62000a68608083018662000a04565b62000a7760a0830185620007f7565b62000a8660c0830184620007f7565b98975050505050505050565b7f4e487b7100000000000000000000000000000000000000000000000000000000600052603260045260246000fd5b60008151905062000ad2816200062e565b92915050565b60006020828403121562000af15762000af0620005f5565b5b600062000b018482850162000ac1565b91505092915050565b7f4e487b7100000000000000000000000000000000000000000000000000000000600052601160045260246000fd5b600062000b468262000720565b915062000b538362000720565b92508282101562000b695762000b6862000b0a565b5b828203905092915050565b600062000b818262000720565b915062000b8e8362000720565b9250827fffffffffffffffffffffffffffffffffffffffffffffffffffffffffffffffff0382111562000bc65762000bc562000b0a565b5b828201905092915050565b600062000bde8262000720565b91507fffffffffffffffffffffffffffffffffffffffffffffffffffffffffffffffff82141562000c145762000c1362000b0a565b5b600182019050919050565b7f4e487b7100000000000000000000000000000000000000000000000000000000600052603160045260246000fdfe6101606040523480156200001257600080fd5b506040516200189c3803806200189c8339818101604052810190620000389190620002cf565b858073ffffffffffffffffffffffffffffffffffffffff1660808173ffffffffffffffffffffffffffffffffffffffff1660601b81525050508673ffffffffffffffffffffffffffffffffffffffff1660a08173ffffffffffffffffffffffffffffffffffffffff1660601b815250508573ffffffffffffffffffffffffffffffffffffffff1660e08173ffffffffffffffffffffffffffffffffffffffff1660601b815250508461010081815250508367ffffffffffffffff166101208167ffffffffffffffff1660c01b815250508263ffffffff166101408163ffffffff1660e01b815250508160c081815250508060018190555060008060006101000a81548160ff0219169083600181111562000157576200015662000382565b5b021790555050505050505050620003b1565b600080fd5b600073ffffffffffffffffffffffffffffffffffffffff82169050919050565b60006200019b826200016e565b9050919050565b620001ad816200018e565b8114620001b957600080fd5b50565b600081519050620001cd81620001a2565b92915050565b6000819050919050565b620001e881620001d3565b8114620001f457600080fd5b50565b6000815190506200020881620001dd565b92915050565b600067ffffffffffffffff82169050919050565b6200022d816200020e565b81146200023957600080fd5b50565b6000815190506200024d8162000222565b92915050565b600063ffffffff82169050919050565b6200026e8162000253565b81146200027a57600080fd5b50565b6000815190506200028e8162000263565b92915050565b6000819050919050565b620002a98162000294565b8114620002b557600080fd5b50565b600081519050620002c9816200029e565b92915050565b600080600080600080600060e0888a031215620002f157620002f062000169565b5b6000620003018a828b01620001bc565b9750506020620003148a828b01620001bc565b9650506040620003278a828b01620001f7565b95505060606200033a8a828b016200023c565b94505060806200034d8a828b016200027d565b93505060a0620003608a828b01620002b8565b92505060c0620003738a828b01620002b8565b91505092959891949750929550565b7f4e487b7100000000000000000000000000000000000000000000000000000000600052602160045260246000fd5b60805160601c60a05160601c60c05160e05160601c610100516101205160c01c6101405160e01c6114656200043760003960006109420152600061091f015260006108fe015260006108c20152600081816104a801526104ce0152600081816103ec015281816107e4015261080a01526000818161032c015261038001526114656000f3fe6080604052600436106100e85760003560e01c806375964b551161008a578063c2def3b911610059578063c2def3b914610280578063e0c86289146102ab578063e89e106a146102c2578063f6eaffc8146102ed576100e8565b806375964b55146101e3578063773fd3cd14610220578063a46c36371461022a578063ad60572914610255576100e8565b8063452f5b2e116100c6578063452f5b2e146101585780634e69d560146101625780635aa68ac01461018d5780636a02209c146101b8576100e8565b80631fe543e3146100ed5780633cc1161a146101165780633e8817aa1461012d575b600080fd5b3480156100f957600080fd5b50610114600480360381019061010f9190610db8565b61032a565b005b34801561012257600080fd5b5061012b6103ea565b005b34801561013957600080fd5b506101426104a4565b60405161014f9190610e23565b60405180910390f35b6101606104cc565b005b34801561016e57600080fd5b5061017761054b565b6040516101849190610eb5565b60405180910390f35b34801561019957600080fd5b506101a2610561565b6040516101af9190610fc0565b60405180910390f35b3480156101c457600080fd5b506101cd61066c565b6040516101da9190610e23565b60405180910390f35b3480156101ef57600080fd5b5061020a60048036038101906102059190610fe2565b610676565b604051610217919061101e565b60405180910390f35b6102286106b5565b005b34801561023657600080fd5b5061023f6107c6565b60405161024c9190610e23565b60405180910390f35b34801561026157600080fd5b5061026a6107d3565b6040516102779190610e23565b60405180910390f35b34801561028c57600080fd5b506102956107e0565b6040516102a2919061101e565b60405180910390f35b3480156102b757600080fd5b506102c0610808565b005b3480156102ce57600080fd5b506102d7610a0c565b6040516102e49190610e23565b60405180910390f35b3480156102f957600080fd5b50610314600480360381019061030f9190610fe2565b610a12565b6040516103219190610e23565b60405180910390f35b7f000000000000000000000000000000000000000000000000000000000000000073ffffffffffffffffffffffffffffffffffffffff163373ffffffffffffffffffffffffffffffffffffffff16146103dc57337f00000000000000000000000000000000000000000000000000000000000000006040517f1cf993f40000000000000000000000000000000000000000000000000000000081526004016103d3929190611039565b60405180910390fd5b6103e68282610a36565b5050565b7f000000000000000000000000000000000000000000000000000000000000000073ffffffffffffffffffffffffffffffffffffffff163373ffffffffffffffffffffffffffffffffffffffff1614610478576040517f08c379a000000000000000000000000000000000000000000000000000000000815260040161046f906110e5565b60405180910390fd5b60016000806101000a81548160ff0219169083600181111561049d5761049c610e3e565b5b0217905550565b60007f0000000000000000000000000000000000000000000000000000000000000000905090565b7f0000000000000000000000000000000000000000000000000000000000000000341461053057346040517fd0c5c15c0000000000000000000000000000000000000000000000000000000081526004016105279190610e23565b60405180910390fd5b34600460008282546105429190611134565b92505081905550565b60008060009054906101000a900460ff16905090565b6060600060028054905067ffffffffffffffff81111561058457610583610c75565b5b6040519080825280602002602001820160405280156105b25781602001602082028036833780820191505090505b50905060005b60028054905081101561066457600281815481106105d9576105d861118a565b5b9060005260206000200160009054906101000a900473ffffffffffffffffffffffffffffffffffffffff168282815181106106175761061661118a565b5b602002602001019073ffffffffffffffffffffffffffffffffffffffff16908173ffffffffffffffffffffffffffffffffffffffff1681525050808061065c906111b9565b9150506105b8565b508091505090565b6000600154905090565b6003818154811061068657600080fd5b906000526020600020016000915054906101000a900473ffffffffffffffffffffffffffffffffffffffff1681565b6001808111156106c8576106c7610e3e565b5b60008054906101000a900460ff1660018111156106e8576106e7610e3e565b5b1415610720576040517fc4590d1100000000000000000000000000000000000000000000000000000000815260040160405180910390fd5b6001546002805490501415610761576040517f67f12f7c00000000000000000000000000000000000000000000000000000000815260040160405180910390fd5b6002339080600181540180825580915050600190039060005260206000200160009091909190916101000a81548173ffffffffffffffffffffffffffffffffffffffff021916908373ffffffffffffffffffffffffffffffffffffffff160217905550565b6000600380549050905090565b6000600280549050905090565b60007f0000000000000000000000000000000000000000000000000000000000000000905090565b7f000000000000000000000000000000000000000000000000000000000000000073ffffffffffffffffffffffffffffffffffffffff163373ffffffffffffffffffffffffffffffffffffffff1614610896576040517f08c379a000000000000000000000000000000000000000000000000000000000815260040161088d906110e5565b60405180910390fd5b60016000806101000a81548160ff021916908360018111156108bb576108ba610e3e565b5b02179055507f000000000000000000000000000000000000000000000000000000000000000073ffffffffffffffffffffffffffffffffffffffff16635d3b1d307f00000000000000000000000000000000000000000000000000000000000000007f000000000000000000000000000000000000000000000000000000000000000060037f000000000000000000000000000000000000000000000000000000000000000060016040518663ffffffff1660e01b815260040161098395949392919061127a565b602060405180830381600087803b15801561099d57600080fd5b505af11580156109b1573d6000803e3d6000fd5b505050506040513d601f19601f820116820180604052508101906109d591906112e2565b6005819055506005547f7fcb39adb5b831fa03838de8ac6af690f48e3339ee8300eff17b1cd8035054df60405160405180910390a2565b60055481565b60068181548110610a2257600080fd5b906000526020600020016000915090505481565b8060069080519060200190610a4c929190610bab565b50600060026006600081548110610a6657610a6561118a565b5b9060005260206000200154610a7b919061133e565b9050600060028281548110610a9357610a9261118a565b5b9060005260206000200160009054906101000a900473ffffffffffffffffffffffffffffffffffffffff16905060008173ffffffffffffffffffffffffffffffffffffffff16600454604051610ae8906113a0565b60006040518083038185875af1925050503d8060008114610b25576040519150601f19603f3d011682016040523d82523d6000602084013e610b2a565b606091505b5050905080610b65576040517f43878cb500000000000000000000000000000000000000000000000000000000815260040160405180910390fd5b60006004819055507f1d4c260f1824cd028e6c9e6e31c3a0b94f2513e7a641113ec759d382f9bdd5a182604051610b9c9190611414565b60405180910390a15050505050565b828054828255906000526020600020908101928215610be7579160200282015b82811115610be6578251825591602001919060010190610bcb565b5b509050610bf49190610bf8565b5090565b5b80821115610c11576000816000905550600101610bf9565b5090565b6000604051905090565b600080fd5b600080fd5b6000819050919050565b610c3c81610c29565b8114610c4757600080fd5b50565b600081359050610c5981610c33565b92915050565b600080fd5b6000601f19601f8301169050919050565b7f4e487b7100000000000000000000000000000000000000000000000000000000600052604160045260246000fd5b610cad82610c64565b810181811067ffffffffffffffff82111715610ccc57610ccb610c75565b5b80604052505050565b6000610cdf610c15565b9050610ceb8282610ca4565b919050565b600067ffffffffffffffff821115610d0b57610d0a610c75565b5b602082029050602081019050919050565b600080fd5b6000610d34610d2f84610cf0565b610cd5565b90508083825260208201905060208402830185811115610d5757610d56610d1c565b5b835b81811015610d805780610d6c8882610c4a565b845260208401935050602081019050610d59565b5050509392505050565b600082601f830112610d9f57610d9e610c5f565b5b8135610daf848260208601610d21565b91505092915050565b60008060408385031215610dcf57610dce610c1f565b5b6000610ddd85828601610c4a565b925050602083013567ffffffffffffffff811115610dfe57610dfd610c24565b5b610e0a85828601610d8a565b9150509250929050565b610e1d81610c29565b82525050565b6000602082019050610e386000830184610e14565b92915050565b7f4e487b7100000000000000000000000000000000000000000000000000000000600052602160045260246000fd5b60028110610e7e57610e7d610e3e565b5b50565b6000819050610e8f82610e6d565b919050565b6000610e9f82610e81565b9050919050565b610eaf81610e94565b82525050565b6000602082019050610eca6000830184610ea6565b92915050565b600081519050919050565b600082825260208201905092915050565b6000819050602082019050919050565b600073ffffffffffffffffffffffffffffffffffffffff82169050919050565b6000610f2782610efc565b9050919050565b610f3781610f1c565b82525050565b6000610f498383610f2e565b60208301905092915050565b6000602082019050919050565b6000610f6d82610ed0565b610f778185610edb565b9350610f8283610eec565b8060005b83811015610fb3578151610f9a8882610f3d565b9750610fa583610f55565b925050600181019050610f86565b5085935050505092915050565b60006020820190508181036000830152610fda8184610f62565b905092915050565b600060208284031215610ff857610ff7610c1f565b5b600061100684828501610c4a565b91505092915050565b61101881610f1c565b82525050565b6000602082019050611033600083018461100f565b92915050565b600060408201905061104e600083018561100f565b61105b602083018461100f565b9392505050565b600082825260208201905092915050565b7f4f6e6c7920746865206f7267616e697a65722063616e2063616c6c207468697360008201527f2066756e6374696f6e0000000000000000000000000000000000000000000000602082015250565b60006110cf602983611062565b91506110da82611073565b604082019050919050565b600060208201905081810360008301526110fe816110c2565b9050919050565b7f4e487b7100000000000000000000000000000000000000000000000000000000600052601160045260246000fd5b600061113f82610c29565b915061114a83610c29565b9250827fffffffffffffffffffffffffffffffffffffffffffffffffffffffffffffffff0382111561117f5761117e611105565b5b828201905092915050565b7f4e487b7100000000000000000000000000000000000000000000000000000000600052603260045260246000fd5b60006111c482610c29565b91507fffffffffffffffffffffffffffffffffffffffffffffffffffffffffffffffff8214156111f7576111f6611105565b5b600182019050919050565b6000819050919050565b61121581611202565b82525050565b600067ffffffffffffffff82169050919050565b6112388161121b565b82525050565b600061ffff82169050919050565b6112558161123e565b82525050565b600063ffffffff82169050919050565b6112748161125b565b82525050565b600060a08201905061128f600083018861120c565b61129c602083018761122f565b6112a9604083018661124c565b6112b6606083018561126b565b6112c3608083018461126b565b9695505050505050565b6000815190506112dc81610c33565b92915050565b6000602082840312156112f8576112f7610c1f565b5b6000611306848285016112cd565b91505092915050565b7f4e487b7100000000000000000000000000000000000000000000000000000000600052601260045260246000fd5b600061134982610c29565b915061135483610c29565b9250826113645761136361130f565b5b828206905092915050565b600081905092915050565b50565b600061138a60008361136f565b91506113958261137a565b600082019050919050565b60006113ab8261137d565b9150819050919050565b6000819050919050565b60006113da6113d56113d084610efc565b6113b5565b610efc565b9050919050565b60006113ec826113bf565b9050919050565b60006113fe826113e1565b9050919050565b61140e816113f3565b82525050565b60006020820190506114296000830184611405565b9291505056fea2646970667358221220eec4dc2cb194f7438f402a971a37167af86f0834a9ad39b20c501d0cf5ca627164736f6c63430008080033a2646970667358221220cb8c2ce0c9d122f0ba87d9bf7fa376fa3809c441d0a61617936db354162ad54864736f6c63430008080033",
  "linkReferences": {},
  "deployedLinkReferences": {}
}