{
  "_format": "hh-sol-artifact-1",
  "contractName": "Arisan",
  "sourceName": "contracts/Arisan.sol",
  "abi": [
    {
      "inputs": [
        {
          "internalType": "address",
          "name": "organizer",
          "type": "address"
        },
        {
          "internalType": "address",
          "name": "vrfCoordinator",
          "type": "address"
        },
        {
          "internalType": "bytes32",
          "name": "gasLane",
          "type": "bytes32"
        },
        {
          "internalType": "uint64",
          "name": "subscriptionId",
          "type": "uint64"
        },
        {
          "internalType": "uint32",
          "name": "callbackGasLimit",
          "type": "uint32"
        },
        {
          "internalType": "uint256",
          "name": "paymentAmount",
          "type": "uint256"
        },
        {
          "internalType": "uint256",
          "name": "_maxParticipants",
          "type": "uint256"
        }
      ],
      "stateMutability": "nonpayable",
      "type": "constructor"
    },
    {
      "inputs": [],
      "name": "Arisan__Closed",
      "type": "error"
    },
    {
      "inputs": [],
      "name": "Arisan__Full",
      "type": "error"
    },
    {
      "inputs": [
        {
          "internalType": "uint256",
          "name": "_paymentAmount",
          "type": "uint256"
        }
      ],
      "name": "Arisan__InvalidPaymentAmount",
      "type": "error"
    },
    {
      "inputs": [],
      "name": "Arisan__TransferFailed",
      "type": "error"
    },
    {
      "inputs": [
        {
          "internalType": "address",
          "name": "have",
          "type": "address"
        },
        {
          "internalType": "address",
          "name": "want",
          "type": "address"
        }
      ],
      "name": "OnlyCoordinatorCanFulfill",
      "type": "error"
    },
    {
      "inputs": [],
      "name": "Participant_AlreadyJoined",
      "type": "error"
    },
    {
      "inputs": [],
      "name": "Participant_NotAParticipant",
      "type": "error"
    },
    {
      "anonymous": false,
      "inputs": [
        {
          "indexed": true,
          "internalType": "uint256",
          "name": "requestId",
          "type": "uint256"
        }
      ],
      "name": "RandomWordsRequested",
      "type": "event"
    },
    {
      "anonymous": false,
      "inputs": [
        {
          "indexed": false,
          "internalType": "uint256[]",
          "name": "randomWords",
          "type": "uint256[]"
        }
      ],
      "name": "ReturnedRandomness",
      "type": "event"
    },
    {
      "anonymous": false,
      "inputs": [
        {
          "indexed": false,
          "internalType": "address",
          "name": "winner",
          "type": "address"
        }
      ],
      "name": "WinnerSelected",
      "type": "event"
    },
    {
      "inputs": [],
      "name": "closeArisan",
      "outputs": [],
      "stateMutability": "nonpayable",
      "type": "function"
    },
    {
      "inputs": [],
      "name": "getArisanPot",
      "outputs": [
        {
          "internalType": "uint256",
          "name": "",
          "type": "uint256"
        }
      ],
      "stateMutability": "view",
      "type": "function"
    },
    {
      "inputs": [],
      "name": "getMaxParticipants",
      "outputs": [
        {
          "internalType": "uint256",
          "name": "",
          "type": "uint256"
        }
      ],
      "stateMutability": "view",
      "type": "function"
    },
    {
      "inputs": [],
      "name": "getOrganizer",
      "outputs": [
        {
          "internalType": "address",
          "name": "",
          "type": "address"
        }
      ],
      "stateMutability": "view",
      "type": "function"
    },
    {
      "inputs": [],
      "name": "getPaidParticipant",
      "outputs": [
        {
          "internalType": "address[]",
          "name": "",
          "type": "address[]"
        }
      ],
      "stateMutability": "view",
      "type": "function"
    },
    {
      "inputs": [],
      "name": "getParticipantCount",
      "outputs": [
        {
          "internalType": "uint256",
          "name": "",
          "type": "uint256"
        }
      ],
      "stateMutability": "view",
      "type": "function"
    },
    {
      "inputs": [],
      "name": "getParticipants",
      "outputs": [
        {
          "internalType": "address[]",
          "name": "",
          "type": "address[]"
        }
      ],
      "stateMutability": "view",
      "type": "function"
    },
    {
      "inputs": [],
      "name": "getPaymentAmount",
      "outputs": [
        {
          "internalType": "uint256",
          "name": "",
          "type": "uint256"
        }
      ],
      "stateMutability": "view",
      "type": "function"
    },
    {
      "inputs": [],
      "name": "getStatus",
      "outputs": [
        {
          "internalType": "enum Arisan.ArisanStatus",
          "name": "",
          "type": "uint8"
        }
      ],
      "stateMutability": "view",
      "type": "function"
    },
    {
      "inputs": [],
      "name": "getWinnerCount",
      "outputs": [
        {
          "internalType": "uint256",
          "name": "",
          "type": "uint256"
        }
      ],
      "stateMutability": "view",
      "type": "function"
    },
    {
      "inputs": [],
      "name": "getWinnerHistory",
      "outputs": [
        {
          "internalType": "address[]",
          "name": "",
          "type": "address[]"
        }
      ],
      "stateMutability": "view",
      "type": "function"
    },
    {
      "inputs": [],
      "name": "joinArisan",
      "outputs": [],
      "stateMutability": "payable",
      "type": "function"
    },
    {
      "inputs": [
        {
          "internalType": "uint256",
          "name": "",
          "type": "uint256"
        }
      ],
      "name": "paidParticipants",
      "outputs": [
        {
          "internalType": "address payable",
          "name": "",
          "type": "address"
        }
      ],
      "stateMutability": "view",
      "type": "function"
    },
    {
      "inputs": [
        {
          "internalType": "uint256",
          "name": "",
          "type": "uint256"
        }
      ],
      "name": "participants",
      "outputs": [
        {
          "internalType": "address payable",
          "name": "",
          "type": "address"
        }
      ],
      "stateMutability": "view",
      "type": "function"
    },
    {
      "inputs": [],
      "name": "payArisan",
      "outputs": [],
      "stateMutability": "payable",
      "type": "function"
    },
    {
      "inputs": [
        {
          "internalType": "uint256",
          "name": "requestId",
          "type": "uint256"
        },
        {
          "internalType": "uint256[]",
          "name": "randomWords",
          "type": "uint256[]"
        }
      ],
      "name": "rawFulfillRandomWords",
      "outputs": [],
      "stateMutability": "nonpayable",
      "type": "function"
    },
    {
      "inputs": [],
      "name": "requestRandomWords",
      "outputs": [],
      "stateMutability": "nonpayable",
      "type": "function"
    },
    {
      "inputs": [
        {
          "internalType": "uint256",
          "name": "",
          "type": "uint256"
        }
      ],
      "name": "s_randomWords",
      "outputs": [
        {
          "internalType": "uint256",
          "name": "",
          "type": "uint256"
        }
      ],
      "stateMutability": "view",
      "type": "function"
    },
    {
      "inputs": [],
      "name": "s_requestId",
      "outputs": [
        {
          "internalType": "uint256",
          "name": "",
          "type": "uint256"
        }
      ],
      "stateMutability": "view",
      "type": "function"
    },
    {
      "inputs": [],
      "name": "status",
      "outputs": [
        {
          "internalType": "enum Arisan.ArisanStatus",
          "name": "",
          "type": "uint8"
        }
      ],
      "stateMutability": "view",
      "type": "function"
    },
    {
      "inputs": [
        {
          "internalType": "uint256",
          "name": "",
          "type": "uint256"
        }
      ],
      "name": "winnerHistory",
      "outputs": [
        {
          "internalType": "address",
          "name": "",
          "type": "address"
        }
      ],
      "stateMutability": "view",
      "type": "function"
    }
  ],
  "bytecode": "0x6101606040523480156200001257600080fd5b506040516200261c3803806200261c8339818101604052810190620000389190620002cf565b858073ffffffffffffffffffffffffffffffffffffffff1660808173ffffffffffffffffffffffffffffffffffffffff1660601b81525050508673ffffffffffffffffffffffffffffffffffffffff1660a08173ffffffffffffffffffffffffffffffffffffffff1660601b815250508573ffffffffffffffffffffffffffffffffffffffff1660e08173ffffffffffffffffffffffffffffffffffffffff1660601b815250508461010081815250508367ffffffffffffffff166101208167ffffffffffffffff1660c01b815250508263ffffffff166101408163ffffffff1660e01b815250508160c081815250508060018190555060008060006101000a81548160ff0219169083600181111562000157576200015662000382565b5b021790555050505050505050620003b1565b600080fd5b600073ffffffffffffffffffffffffffffffffffffffff82169050919050565b60006200019b826200016e565b9050919050565b620001ad816200018e565b8114620001b957600080fd5b50565b600081519050620001cd81620001a2565b92915050565b6000819050919050565b620001e881620001d3565b8114620001f457600080fd5b50565b6000815190506200020881620001dd565b92915050565b600067ffffffffffffffff82169050919050565b6200022d816200020e565b81146200023957600080fd5b50565b6000815190506200024d8162000222565b92915050565b600063ffffffff82169050919050565b6200026e8162000253565b81146200027a57600080fd5b50565b6000815190506200028e8162000263565b92915050565b6000819050919050565b620002a98162000294565b8114620002b557600080fd5b50565b600081519050620002c9816200029e565b92915050565b600080600080600080600060e0888a031215620002f157620002f062000169565b5b6000620003018a828b01620001bc565b9750506020620003148a828b01620001bc565b9650506040620003278a828b01620001f7565b95505060606200033a8a828b016200023c565b94505060806200034d8a828b016200027d565b93505060a0620003608a828b01620002b8565b92505060c0620003738a828b01620002b8565b91505092959891949750929550565b7f4e487b7100000000000000000000000000000000000000000000000000000000600052602160045260246000fd5b60805160601c60a05160601c60c05160e05160601c610100516101205160c01c6101405160e01c6121e5620004376000396000610f5e01526000610f3b01526000610f1a01526000610ede0152600081816107b401526108760152600081816106f801528181610e000152610e260152600081816104dd015261053101526121e56000f3fe60806040526004361061012a5760003560e01c80635aa68ac0116100ab578063ad6057291161006f578063ad60572914610392578063c0ed3983146103bd578063c2def3b9146103e8578063e0c8628914610413578063e89e106a1461042a578063f6eaffc8146104555761012a565b80635aa68ac0146102ca5780636a02209c146102f557806375964b5514610320578063773fd3cd1461035d578063a46c3637146103675761012a565b806335c1d349116100f257806335c1d349146102165780633cc1161a146102535780633e8817aa1461026a578063452f5b2e146102955780634e69d5601461029f5761012a565b8063020493921461012f5780631ef98aab1461016c5780631fe543e314610197578063200d2ed2146101c05780633580404b146101eb575b600080fd5b34801561013b57600080fd5b50610156600480360381019061015191906117c9565b610492565b6040516101639190611837565b60405180910390f35b34801561017857600080fd5b506101816104d1565b60405161018e9190611861565b60405180910390f35b3480156101a357600080fd5b506101be60048036038101906101b991906119d5565b6104db565b005b3480156101cc57600080fd5b506101d561059b565b6040516101e29190611aa8565b60405180910390f35b3480156101f757600080fd5b506102006105ac565b60405161020d9190611b93565b60405180910390f35b34801561022257600080fd5b5061023d600480360381019061023891906117c9565b6106b7565b60405161024a9190611837565b60405180910390f35b34801561025f57600080fd5b506102686106f6565b005b34801561027657600080fd5b5061027f6107b0565b60405161028c9190611861565b60405180910390f35b61029d6107d8565b005b3480156102ab57600080fd5b506102b4610994565b6040516102c19190611aa8565b60405180910390f35b3480156102d657600080fd5b506102df6109aa565b6040516102ec9190611b93565b60405180910390f35b34801561030157600080fd5b5061030a610ab5565b6040516103179190611861565b60405180910390f35b34801561032c57600080fd5b50610347600480360381019061034291906117c9565b610abf565b6040516103549190611bc4565b60405180910390f35b610365610afe565b005b34801561037357600080fd5b5061037c610cd7565b6040516103899190611861565b60405180910390f35b34801561039e57600080fd5b506103a7610ce4565b6040516103b49190611861565b60405180910390f35b3480156103c957600080fd5b506103d2610cf1565b6040516103df9190611b93565b60405180910390f35b3480156103f457600080fd5b506103fd610dfc565b60405161040a9190611bc4565b60405180910390f35b34801561041f57600080fd5b50610428610e24565b005b34801561043657600080fd5b5061043f611028565b60405161044c9190611861565b60405180910390f35b34801561046157600080fd5b5061047c600480360381019061047791906117c9565b61102e565b6040516104899190611861565b60405180910390f35b600381815481106104a257600080fd5b906000526020600020016000915054906101000a900473ffffffffffffffffffffffffffffffffffffffff1681565b6000600554905090565b7f000000000000000000000000000000000000000000000000000000000000000073ffffffffffffffffffffffffffffffffffffffff163373ffffffffffffffffffffffffffffffffffffffff161461058d57337f00000000000000000000000000000000000000000000000000000000000000006040517f1cf993f4000000000000000000000000000000000000000000000000000000008152600401610584929190611bdf565b60405180910390fd5b6105978282611052565b5050565b60008054906101000a900460ff1681565b6060600060048054905067ffffffffffffffff8111156105cf576105ce611892565b5b6040519080825280602002602001820160405280156105fd5781602001602082028036833780820191505090505b50905060005b6004805490508110156106af576004818154811061062457610623611c08565b5b9060005260206000200160009054906101000a900473ffffffffffffffffffffffffffffffffffffffff1682828151811061066257610661611c08565b5b602002602001019073ffffffffffffffffffffffffffffffffffffffff16908173ffffffffffffffffffffffffffffffffffffffff168152505080806106a790611c66565b915050610603565b508091505090565b600281815481106106c757600080fd5b906000526020600020016000915054906101000a900473ffffffffffffffffffffffffffffffffffffffff1681565b7f000000000000000000000000000000000000000000000000000000000000000073ffffffffffffffffffffffffffffffffffffffff163373ffffffffffffffffffffffffffffffffffffffff1614610784576040517f08c379a000000000000000000000000000000000000000000000000000000000815260040161077b90611d32565b60405180910390fd5b60016000806101000a81548160ff021916908360018111156107a9576107a8611a31565b5b0217905550565b60007f0000000000000000000000000000000000000000000000000000000000000000905090565b6000805b600280549050811015610873573373ffffffffffffffffffffffffffffffffffffffff166002828154811061081457610813611c08565b5b9060005260206000200160009054906101000a900473ffffffffffffffffffffffffffffffffffffffff1673ffffffffffffffffffffffffffffffffffffffff16141561086057600191505b808061086b90611c66565b9150506107dc565b507f000000000000000000000000000000000000000000000000000000000000000034146108d857346040517fd0c5c15c0000000000000000000000000000000000000000000000000000000081526004016108cf9190611861565b60405180910390fd5b801561095f5734600560008282546108f09190611d52565b925050819055506003339080600181540180825580915050600190039060005260206000200160009091909190916101000a81548173ffffffffffffffffffffffffffffffffffffffff021916908373ffffffffffffffffffffffffffffffffffffffff160217905550610991565b6040517fa38b2ed200000000000000000000000000000000000000000000000000000000815260040160405180910390fd5b50565b60008060009054906101000a900460ff16905090565b6060600060028054905067ffffffffffffffff8111156109cd576109cc611892565b5b6040519080825280602002602001820160405280156109fb5781602001602082028036833780820191505090505b50905060005b600280549050811015610aad5760028181548110610a2257610a21611c08565b5b9060005260206000200160009054906101000a900473ffffffffffffffffffffffffffffffffffffffff16828281518110610a6057610a5f611c08565b5b602002602001019073ffffffffffffffffffffffffffffffffffffffff16908173ffffffffffffffffffffffffffffffffffffffff16815250508080610aa590611c66565b915050610a01565b508091505090565b6000600154905090565b60048181548110610acf57600080fd5b906000526020600020016000915054906101000a900473ffffffffffffffffffffffffffffffffffffffff1681565b600180811115610b1157610b10611a31565b5b60008054906101000a900460ff166001811115610b3157610b30611a31565b5b1415610b69576040517fc4590d1100000000000000000000000000000000000000000000000000000000815260040160405180910390fd5b6001546002805490501415610baa576040517f67f12f7c00000000000000000000000000000000000000000000000000000000815260040160405180910390fd5b60005b600280549050811015610c71573373ffffffffffffffffffffffffffffffffffffffff1660028281548110610be557610be4611c08565b5b9060005260206000200160009054906101000a900473ffffffffffffffffffffffffffffffffffffffff1673ffffffffffffffffffffffffffffffffffffffff161415610c5e576040517f22af9d1900000000000000000000000000000000000000000000000000000000815260040160405180910390fd5b8080610c6990611c66565b915050610bad565b506002339080600181540180825580915050600190039060005260206000200160009091909190916101000a81548173ffffffffffffffffffffffffffffffffffffffff021916908373ffffffffffffffffffffffffffffffffffffffff160217905550565b6000600480549050905090565b6000600280549050905090565b6060600060038054905067ffffffffffffffff811115610d1457610d13611892565b5b604051908082528060200260200182016040528015610d425781602001602082028036833780820191505090505b50905060005b600380549050811015610df45760028181548110610d6957610d68611c08565b5b9060005260206000200160009054906101000a900473ffffffffffffffffffffffffffffffffffffffff16828281518110610da757610da6611c08565b5b602002602001019073ffffffffffffffffffffffffffffffffffffffff16908173ffffffffffffffffffffffffffffffffffffffff16815250508080610dec90611c66565b915050610d48565b508091505090565b60007f0000000000000000000000000000000000000000000000000000000000000000905090565b7f000000000000000000000000000000000000000000000000000000000000000073ffffffffffffffffffffffffffffffffffffffff163373ffffffffffffffffffffffffffffffffffffffff1614610eb2576040517f08c379a0000000000000000000000000000000000000000000000000000000008152600401610ea990611d32565b60405180910390fd5b60016000806101000a81548160ff02191690836001811115610ed757610ed6611a31565b5b02179055507f000000000000000000000000000000000000000000000000000000000000000073ffffffffffffffffffffffffffffffffffffffff16635d3b1d307f00000000000000000000000000000000000000000000000000000000000000007f000000000000000000000000000000000000000000000000000000000000000060037f000000000000000000000000000000000000000000000000000000000000000060016040518663ffffffff1660e01b8152600401610f9f959493929190611e20565b602060405180830381600087803b158015610fb957600080fd5b505af1158015610fcd573d6000803e3d6000fd5b505050506040513d601f19601f82011682018060405250810190610ff19190611e88565b6006819055506006547f7fcb39adb5b831fa03838de8ac6af690f48e3339ee8300eff17b1cd8035054df60405160405180910390a2565b60065481565b6007818154811061103e57600080fd5b906000526020600020016000915090505481565b806007908051906020019061106892919061170b565b506110c76040518060400160405280601181526020017f0952616e646f6d20576f7264733a20257300000000000000000000000000000081525060076000815481106110b7576110b6611c08565b5b906000526020600020015461144f565b6000600260076000815481106110e0576110df611c08565b5b90600052602060002001546110f59190611ee4565b905060006002828154811061110d5761110c611c08565b5b9060005260206000200160009054906101000a900473ffffffffffffffffffffffffffffffffffffffff1690506111786040518060400160405280600e81526020017f0a092d2d2d4265666f72652d2d2d0000000000000000000000000000000000008152506114eb565b6111dd6040518060600160405280602781526020016121896027913982670de0b6b3a76400008473ffffffffffffffffffffffffffffffffffffffff16316111c09190611f15565b8473ffffffffffffffffffffffffffffffffffffffff1631611584565b6112346040518060400160405280601c81526020017f0a09506f74205072697a653a2025732045544820282573205745492900000000815250670de0b6b3a764000060055461122c9190611f15565b600554611626565b60008173ffffffffffffffffffffffffffffffffffffffff1660055460405161125c90611f77565b60006040518083038185875af1925050503d8060008114611299576040519150601f19603f3d011682016040523d82523d6000602084013e61129e565b606091505b50509050806112d9576040517f43878cb500000000000000000000000000000000000000000000000000000000815260040160405180910390fd5b60008060006101000a81548160ff021916908360018111156112fe576112fd611a31565b5b02179055506004829080600181540180825580915050600190039060005260206000200160009091909190916101000a81548173ffffffffffffffffffffffffffffffffffffffff021916908373ffffffffffffffffffffffffffffffffffffffff1602179055507f1d4c260f1824cd028e6c9e6e31c3a0b94f2513e7a641113ec759d382f9bdd5a1826040516113959190611feb565b60405180910390a160006005819055506113e36040518060400160405280600d81526020017f0a092d2d2d41667465722d2d2d000000000000000000000000000000000000008152506114eb565b6114486040518060600160405280602781526020016121896027913983670de0b6b3a76400008573ffffffffffffffffffffffffffffffffffffffff163161142b9190611f15565b8573ffffffffffffffffffffffffffffffffffffffff1631611584565b5050505050565b6114e7828260405160240161146592919061207d565b6040516020818303038152906040527fb60e72cc000000000000000000000000000000000000000000000000000000007bffffffffffffffffffffffffffffffffffffffffffffffffffffffff19166020820180517bffffffffffffffffffffffffffffffffffffffffffffffffffffffff83818316178352505050506116c5565b5050565b611581816040516024016114ff91906120ad565b6040516020818303038152906040527f41304fac000000000000000000000000000000000000000000000000000000007bffffffffffffffffffffffffffffffffffffffffffffffffffffffff19166020820180517bffffffffffffffffffffffffffffffffffffffffffffffffffffffff83818316178352505050506116c5565b50565b6116208484848460405160240161159e94939291906120cf565b6040516020818303038152906040527ff8f51b1e000000000000000000000000000000000000000000000000000000007bffffffffffffffffffffffffffffffffffffffffffffffffffffffff19166020820180517bffffffffffffffffffffffffffffffffffffffffffffffffffffffff83818316178352505050506116c5565b50505050565b6116c083838360405160240161163e9392919061211b565b6040516020818303038152906040527fca47c4eb000000000000000000000000000000000000000000000000000000007bffffffffffffffffffffffffffffffffffffffffffffffffffffffff19166020820180517bffffffffffffffffffffffffffffffffffffffffffffffffffffffff83818316178352505050506116c5565b505050565b6116dc816116d46116df611700565b63ffffffff16565b50565b60006a636f6e736f6c652e6c6f679050600080835160208501845afa505050565b611758819050919050565b828054828255906000526020600020908101928215611747579160200282015b8281111561174657825182559160200191906001019061172b565b5b5090506117549190611762565b5090565b611760612159565b565b5b8082111561177b576000816000905550600101611763565b5090565b6000604051905090565b600080fd5b600080fd5b6000819050919050565b6117a681611793565b81146117b157600080fd5b50565b6000813590506117c38161179d565b92915050565b6000602082840312156117df576117de611789565b5b60006117ed848285016117b4565b91505092915050565b600073ffffffffffffffffffffffffffffffffffffffff82169050919050565b6000611821826117f6565b9050919050565b61183181611816565b82525050565b600060208201905061184c6000830184611828565b92915050565b61185b81611793565b82525050565b60006020820190506118766000830184611852565b92915050565b600080fd5b6000601f19601f8301169050919050565b7f4e487b7100000000000000000000000000000000000000000000000000000000600052604160045260246000fd5b6118ca82611881565b810181811067ffffffffffffffff821117156118e9576118e8611892565b5b80604052505050565b60006118fc61177f565b905061190882826118c1565b919050565b600067ffffffffffffffff82111561192857611927611892565b5b602082029050602081019050919050565b600080fd5b600061195161194c8461190d565b6118f2565b9050808382526020820190506020840283018581111561197457611973611939565b5b835b8181101561199d578061198988826117b4565b845260208401935050602081019050611976565b5050509392505050565b600082601f8301126119bc576119bb61187c565b5b81356119cc84826020860161193e565b91505092915050565b600080604083850312156119ec576119eb611789565b5b60006119fa858286016117b4565b925050602083013567ffffffffffffffff811115611a1b57611a1a61178e565b5b611a27858286016119a7565b9150509250929050565b7f4e487b7100000000000000000000000000000000000000000000000000000000600052602160045260246000fd5b60028110611a7157611a70611a31565b5b50565b6000819050611a8282611a60565b919050565b6000611a9282611a74565b9050919050565b611aa281611a87565b82525050565b6000602082019050611abd6000830184611a99565b92915050565b600081519050919050565b600082825260208201905092915050565b6000819050602082019050919050565b6000611afa826117f6565b9050919050565b611b0a81611aef565b82525050565b6000611b1c8383611b01565b60208301905092915050565b6000602082019050919050565b6000611b4082611ac3565b611b4a8185611ace565b9350611b5583611adf565b8060005b83811015611b86578151611b6d8882611b10565b9750611b7883611b28565b925050600181019050611b59565b5085935050505092915050565b60006020820190508181036000830152611bad8184611b35565b905092915050565b611bbe81611aef565b82525050565b6000602082019050611bd96000830184611bb5565b92915050565b6000604082019050611bf46000830185611bb5565b611c016020830184611bb5565b9392505050565b7f4e487b7100000000000000000000000000000000000000000000000000000000600052603260045260246000fd5b7f4e487b7100000000000000000000000000000000000000000000000000000000600052601160045260246000fd5b6000611c7182611793565b91507fffffffffffffffffffffffffffffffffffffffffffffffffffffffffffffffff821415611ca457611ca3611c37565b5b600182019050919050565b600082825260208201905092915050565b7f4f6e6c7920746865206f7267616e697a65722063616e2063616c6c207468697360008201527f2066756e6374696f6e0000000000000000000000000000000000000000000000602082015250565b6000611d1c602983611caf565b9150611d2782611cc0565b604082019050919050565b60006020820190508181036000830152611d4b81611d0f565b9050919050565b6000611d5d82611793565b9150611d6883611793565b9250827fffffffffffffffffffffffffffffffffffffffffffffffffffffffffffffffff03821115611d9d57611d9c611c37565b5b828201905092915050565b6000819050919050565b611dbb81611da8565b82525050565b600067ffffffffffffffff82169050919050565b611dde81611dc1565b82525050565b600061ffff82169050919050565b611dfb81611de4565b82525050565b600063ffffffff82169050919050565b611e1a81611e01565b82525050565b600060a082019050611e356000830188611db2565b611e426020830187611dd5565b611e4f6040830186611df2565b611e5c6060830185611e11565b611e696080830184611e11565b9695505050505050565b600081519050611e828161179d565b92915050565b600060208284031215611e9e57611e9d611789565b5b6000611eac84828501611e73565b91505092915050565b7f4e487b7100000000000000000000000000000000000000000000000000000000600052601260045260246000fd5b6000611eef82611793565b9150611efa83611793565b925082611f0a57611f09611eb5565b5b828206905092915050565b6000611f2082611793565b9150611f2b83611793565b925082611f3b57611f3a611eb5565b5b828204905092915050565b600081905092915050565b50565b6000611f61600083611f46565b9150611f6c82611f51565b600082019050919050565b6000611f8282611f54565b9150819050919050565b6000819050919050565b6000611fb1611fac611fa7846117f6565b611f8c565b6117f6565b9050919050565b6000611fc382611f96565b9050919050565b6000611fd582611fb8565b9050919050565b611fe581611fca565b82525050565b60006020820190506120006000830184611fdc565b92915050565b600081519050919050565b60005b8381101561202f578082015181840152602081019050612014565b8381111561203e576000848401525b50505050565b600061204f82612006565b6120598185611caf565b9350612069818560208601612011565b61207281611881565b840191505092915050565b600060408201905081810360008301526120978185612044565b90506120a66020830184611852565b9392505050565b600060208201905081810360008301526120c78184612044565b905092915050565b600060808201905081810360008301526120e98187612044565b90506120f86020830186611bb5565b6121056040830185611852565b6121126060830184611852565b95945050505050565b600060608201905081810360008301526121358186612044565b90506121446020830185611852565b6121516040830184611852565b949350505050565b7f4e487b7100000000000000000000000000000000000000000000000000000000600052605160045260246000fdfe09416464726573733a202573200a0942616c616e63653a20257320455448202825732057454929a264697066735822122001c8267dbf2570a617f73df85eaf0b2ee0c329bb34370c6fd5d5ed8279729a7864736f6c63430008080033",
  "linkReferences": {},
  "deployedLinkReferences": {}
}